:0300000002011EDC
:0C011E00787FE4F6D8FD758123020165AE
:030006000D0A00E0
:10000E000A0830313233343536373839021C00663F
:04001E00021600FCCA
:100272007598DA758920758BFD758DFDD28ED2AC9D
:03028200D2AF22D6
:0702B200D288D2A8D2AF22CE
:0E029700438901851D8A85178CD28CD2A9223D
:100285002000FDEF30D004D29B8002C29BD200F546
:020295009922AC
:100232008B218A228923AB21AA22A92312002660BC
:10024200130523E5237002052214F9120026FF127A
:05025200028580E2229C
:0702B900120026FF0202857E
:1001AA00D2901202721202B2120297AF1BAE1AADAD
:1001BA0019AC18EC4D4E4F60F2E47B0AFAF9F812CA
:1001CA00007B74082BF9E4FAFB1202B9AF1BAE1AD2
:1001DA00AD19AC18E47B0AF9F812007B8F1B8E1A52
:1001EA008D198C18E4FFFEFDFCAB1BAA1AA919A8ED
:1001FA0018C312010D70B47BFF7A0079061202321D
:02020A0080A9C9
:03000B0002020CE2
:10020C00C0E0C0D0B295851D8A85178CE5152401F8
:10021C00F515E43514F514E43513F513E43512F53E
:06022C0012D0D0D0E03238
:030003000202579F
:10025700B29785151B85141A8513198512187515FC
:0B0267000075140075130075120032C2
:030023000202A531
:0D02A500309802C298309904C299C200320C
:10012A000201AAE493A3F8E493A34003F68001F240
:10013A0008DFF48029E493A3F85407240CC8C333D6
:10014A00C4540F4420C8834004F456800146F6DFA5
:10015A00E4800B010204081020408090000EE47E27
:10016A00019360BCA3FF543F30E509541FFEE4939A
:10017A00A360010ECF54C025E060A840B8E493A361
:10018A00FAE493A3F8E493A3C8C582C8CAC583CA8C
:10019A00F0A3C8C582C8CAC583CADFE9DEE780BE44
:0100220000DD
:10002600BB010689828A83E0225002E722BBFE02D8
:09003600E32289828A83E493220B
:10003F0075F008758200EF2FFFEE33FECD33CDCC78
:10004F0033CCC58233C5829BED9AEC99E5829840FB
:10005F000CF582EE9BFEED9AFDEC99FC0FD5F0D6D8
:10006F00E4CEFBE4CDFAE4CCF9A88222B800C1B902
:10007F000059BA002DEC8BF084CFCECDFCE5F0CB40
:10008F00F97818EF2FFFEE33FEED33FDEC33FCEB79
:10009F0033FB10D703994004EB99FB0FD8E5E4F934
:1000AF00FA227818EF2FFFEE33FEED33FDEC33FC21
:1000BF00C933C910D7059BE99A4007EC9BFCE99A15
:1000CF00F90FD8E0E4C9FAE4CCFB2275F010EF2F5A
:1000DF00FFEE33FEED33FDCC33CCC833C810D7075A
:1000EF009BEC9AE899400AED9BFDEC9AFCE899F895
:0E00FF000FD5F0DAE4CDFBE4CCFAE4C8F92228
:10010D00EB9FF5F0EA9E42F0E99D42F0E89C45F048
:01011D0022BF
:00000001FF
